:020000040800F2
:10000000680600209D01000851100008E50B00085B
:100010004D1000083B020008FD260008000000000B
:10002000000000000000000000000000CD190008E2
:100030007909000800000000751200080922000874
:10004000B7010008B7010008B7010008B7010008B0
:10005000B7010008B701000889090008B7010008C6
:10006000B7010008B7010008B7010008B701000890
:10007000B7010008B7010008B7010008B701000880
:10008000B7010008B7010008B7010008B701000870
:10009000D1260008B7010008B7010008B701000821
:1000A000B7010008B7010008B7010008B701000850
:1000B000A5220008B7010008B7010008B701000831
:1000C000B7010008B7010008B7010008B701000830
:1000D000B7010008B7010008B7010008B701000820
:1000E000B7010008B7010008A5250008B7010008FE
:1000F000B7010008B7010008B7010008B701000800
:10010000000000000000000000000000B70100082F
:10011000B7010008B7010008B7010008B7010008DF
:10012000B7010008B7010008B7010008B7010008CF
:10013000B7010008B701000800000000000000003F
:10014000B7010008B7010008B7010008000000006F
:10015000000000000000000000000000000000009F
:100160000000000000000000B7010008B70100080F
:10017000B7010008000000000000000000000000BF
:1001800000000000B7010008DFF80CD000F018F8FC
:1001900000480047572700086806002006488047A7
:1001A00006480047FEE7FEE7FEE7FEE7FEE7FEE75C
:1001B000FEE7FEE7FEE7FEE72122000889010008CE
:1001C000064C074D06E0E06840F0010394E80700A4
:1001D00098471034AC42F6D3FFF7DAFFA82800089E
:1001E000C828000870B58C1810F8015B15F00703DB
:1001F00001D110F8013B2A1106D110F8012B03E0C0
:1002000010F8016B01F8016B5B1EF9D12B0705D4C7
:100210000023521E0DD401F8013BFAE710F8013B10
:10022000CB1A921C03E013F8015B01F8015B521E2C
:10023000F9D5A142D8D3002070BD00BFFEE701462A
:10024000CAB20B1243EA02207047000008B5002032
:10025000009022E19748008800F00F00964908704E
:100260000846007800287CD19448006894490880AA
:100270000846008800F030009249088090480088C5
:1002800000F440508E4908808C4909684BF6BF72D3
:1002900001EA020080F4005080F0200040F40041A8
:1002A00041F08001854A11608248008800F010000A
:1002B00090BB1046006848F60F7108401146086070
:1002C00000F092FC7D4909684BF6BF7201EA02001A
:1002D0007B49098801F4805109B180F48050784944
:1002E000098801F4005109B180F40050754909886A
:1002F00001F0100109B180F010007249098801F085
:10030000200109B180F0200081B241F4004141F0A8
:1003100080016A4A116008BDFFE76848006880B242
:100320000090BDF8000000F40060B0B363480068BE
:10033000C0F30E0048F68F7108406049086001F074
:10034000A9FC5E4909684BF6BF7201EA02005C49EC
:10035000098801F4805109B180F480505849098816
:1003600000E056E001F4005109B180F40050554915
:10037000098801F0100109B180F010005149098885
:1003800001F0200109B180F0200081B241F4004168
:1003900041F08001494A1160BDE7FFE7BDF8000068
:1003A00000F40040002878D044480068C0F30E00F4
:1003B00048F68F7108404149086000F01FFF3F492F
:1003C00009684BF6BF7201EA02003D49098801F451
:1003D000805109B180F480503949098801F40051F5
:1003E00009B180F400503749098801F0100109B1C2
:1003F00080F010003349098801F0200109B180F034
:10040000200081B241F4004141F080012B4A11608B
:1004100081E7294800782C4901EB8000D0F8000CD6
:1004200080B20090BDF8000000F40040C0B1224846
:10043000007801EB8000D0F8000CC0F30E0048F605
:100440008F7108401C4909781F4A02EB8101C1F8ED
:10045000000C19490978491E1C4A52F821008047AE
:10046000BDF8000000F08000B8B1134800781649CC
:1004700001EB8000D0F8000C48F60F7108400E49DF
:100480000978114A02EB8101C1F8000C0A49097888
:10049000491E0F4A52F8210080470848443000683E
:1004A00080B20449088000F4004000287FF4D2AEF6
:1004B00000BF30E7D000002004000020005C0040B6
:1004C000180000201A00002000500040F00000201A
:1004D000D40000200B4A02EB8001D1F8001C01F48B
:1004E000804171B102EB8001D1F8001C48F68F7297
:1004F00011404CF280021143024B03EB8002C2F820
:10050000001C7047005000400B4A02EB8001D1F8FC
:10051000001C01F0400171B102EB8001D1F8001C18
:1005200048F68F72114048F2C0021143024B03EBB0
:100530008002C2F8001C704700500040084A02EBDD
:100540008001D1F8001C48F68F62114048F2800209
:100550001143034B03EB8002C2F8001C70470000FC
:10056000005000402DE9F0472848006800F11005D0
:100570002E8826480068077AD6B9042F18D1244857
:10058000007801280FD100212248006880B2801C29
:10059000214A42F8101030202049088000BF002076
:1005A0001B49087003E0072710201C49088027E03A
:1005B000AC88A64201D8042000E002200746B442DD
:1005C00000D93446A0B2A96888478046002000F0D0
:1005D000DFFA8146A2B24946404602F091F8A1B244
:1005E000002001F0B5FA2888001B28806888204484
:1005F000688030200949088000020949088000BF4E
:10060000024909680F72BDE8F08700000800002069
:1006100002000020505C0040006000401A000020F2
:10062000180000202DE9F0412848006800F110046E
:100630002688A068C0B1BEB1A588B54200D93546AC
:10064000A8B2A168884707462088401B20806088A0
:1006500028446080002000F08BFA8046AAB2414610
:10066000384600F0F3FD00BF208850B14FF44050F1
:10067000174908800021084601F06AFA3020154920
:1006800008802088A188884204DB03200F4909687C
:10069000087218E02088002804DD05200B4909684D
:1006A000087210E0208870B90620084909680872AD
:1006B00000210948006880B2801C084A42F81010E6
:1006C000302004490880BDE8F081000008000020C7
:1006D000180000201A000020505C0040006000401C
:1006E0002DE9F84F9B48006845780027BA46062D4B
:1006F0001BD198480068007800F07F00002813D1D3
:10070000944909688878012803D193490968CF6919
:100710000AE0022803D1904909680F6A04E003281F
:1007200002D18D4909684F6A94E0002D64D189484F
:100730000068408800285FD186480068C088022889
:100740005AD1844800680079002855D18148006852
:10075000007800F07F0028B97E480068808808B9DA
:100760007E4F77E07B480068007800F07F0001282A
:1007700010D1784909684879774909688A69002160
:100780009047002866D173480068807A002861D0BD
:10079000724F5FE06F480068007800F07F00022829
:1007A00058D16C480068407900F00F06694800682D
:1007B000407900F0700967480068407900F08000D7
:1007C00038B1674901EB8600D0F8000C00F0300822
:1007D00006E0634901EB8600D0F8000C00F44058B5
:1007E00060480078B04235D9B9F1000F32D1B8F184
:1007F000000F2FD0594F2DE0082D07D15548006824
:10080000007800F07F0028BB574F23E00A2D21D14C
:1008100050480068007800F07F0001281AD14D4848
:100820000068807AB0B14B480068408890B9494868
:100830000068007970B947480068C088012809D16C
:10084000444909684879444909688A690021904700
:1008500000B9464F57B13F480068A0F812A03D4884
:10086000006887610020B84700240FE0394A126809
:100870005078394A1268116988470446032C05D11B
:100880000920344909680872BDE8F88F31480068CA
:10089000008A4FF6FF71884204D109202D4909686A
:1008A0000872F1E7022C03D02A480068008A20B9B8
:1008B0000820284909680872E6E726480068007899
:1008C00000F08000E0B323480068C0880090214811
:1008D0000068008A0099884204D91E490098096876
:1008E000088223E01B480068008A1A490968C98801
:1008F00088421BDA17480068008A1749096891F88E
:100900002C10884203DA0020194908700EE01148C3
:100910000068008A1049096891F82C1090FBF1F2E8
:1009200001FB120010B90120114908700A48006843
:1009300090F82C10074800688182FFF713FE07E04B
:10094000FFE703200349096808720003094908808A
:1009500000BF99E7080000200C000020351F0008A8
:100960000050004010010020B91E0008091F0008B7
:1009700002000020180000207047000001200149FB
:10098000087070478100002010B5002000F04AF880
:10099000012832D1002001F009F870B30020174976
:1009A000086004E015480068401C144908601348BA
:1009B000006813498842F5D300BF002000F0F6FF1D
:1009C0000028FAD10D49086004E00C480068401C7A
:1009D0000A4908600948006809498842F5D309486E
:1009E0000068401C0749086008460068022801D9D1
:1009F00000200860002000F007F810BDB0000020C3
:100A0000FFFF07007C00002000F01F020121914041
:100A10004209034B03EB4212C2F814147047000062
:100A20000000014030B50146002000224B090E4C69
:100A300004EB4313D3F8003401F01F050124AC404C
:100A400003EA04024B09084C04EB4313D3F81434B3
:100A500001F01F050124AC40234013B10AB101206D
:100A600000E0002030BD00000000014010B5032070
:100A7000024908600020FFF7C7FF10BDA801002051
:100A8000F0B50A4600210023002400BF3DE0012507
:100A900005FA01F3156805EA03049C4234D115797F
:100AA000012D02D01579022D16D185684F0003263D
:100AB000BE40B543856055794E00B54086683543E4
:100AC0008560868801258D40AE438680868895792D
:100AD0008D40ADB22E43868005684F000326BE4090
:100AE000B543056015794E00B5400668354305608D
:100AF000C5684F000326BE40B543C560D5794E009A
:100B0000B540C6683543C560491C1029BFD3F0BD48
:100B1000F0B5002300244D07ED0E02FA05F3CE10C8
:100B200000F1200555F826504E07F70E0F26BE405F
:100B3000B543CF1000F1200646F82750CE1000F143
:100B4000200555F8265045EA0304CE1000F1200593
:100B500045F82640F0BD02460020138A0B400BB139
:100B6000012000E0002070470185704781617047D7
:100B700001460548006880B200EBC100001D034A31
:100B800032F8100080B27047505C004000600040B6
:100B900001460548006880B200EBC100034A32F804
:100BA000100080B270470000505C004000600040C0
:100BB00070B50A480468001D0568001D06683444C5
:100BC00054B108220649204600F0C4F80422044922
:100BD0001031284600F0BEF870BD0000E8F7FF1F96
:100BE000B600002000BFFEE710B518480068047A80
:100BF000022C01D0042C05D1FFF7B4FC1348006887
:100C0000047A1CE0062C19D11048006840780528A9
:100C10000ED10E480068007800F07F0040B90B4903
:100C20000968C87800F0EAFE09490968086A80473F
:100C30000849096888688047082400E008240349B7
:100C400009680C7200F018FB10BD000008000020BD
:100C5000140000200C00002010B50121480400F011
:100C60004FFB4FF4807005490860012008714871FE
:100C70004FF09040FFF704FF10BD00008C000020F3
:100C800010B50121480500F03BFB072200210B486D
:100C9000FFF73EFF072201210848FFF739FF032035
:100CA00007490860022008710320487100208871FC
:100CB000C8710248FFF7E4FE10BD000000100048B4
:100CC0008C00002010B50121084600F029FB1C20F3
:100CD000104908700020487001208870C8700846CC
:100CE00000F0B8F948F69F400B4908800020488082
:100CF000C7204860002008814FF0804001F024FBAD
:100D000001221146900701F012FB0121880701F032
:100D1000F1FA10BD880000202C02002010B501213E
:100D2000880300F00DFB4FF41650084908600020BE
:100D300048608860C86048610C200861044801F080
:100D4000BBFB0121024801F0ABFB10BD4C020020AF
:100D50000038014030B50B46002100BF16E00A24E0
:100D6000B4EB107F05D9302404EB107403F8114064
:100D700005E0412404EB10740A3C03F81140000123
:100D800000254C00641C1D554C1CE1B29142E6DB71
:100D900030BD000070B504460025062C18D1184857
:100DA0000068007800F07F00012811D11448006825
:100DB000407968B9124800688078222801D1114D25
:100DC00010E00F480068807821280BD10E4D09E013
:100DD0000B480068007800F07F00212802D1032C26
:100DE00000D10A4D0DB9022070BD0548006885612B
:100DF00000210348006841820020A8470020F3E753
:100E000008000020690E0008390E00084D0E000889
:100E100010B504460249204601F064F810BD0000F8
:100E20007001002010B504460249204601F05AF82E
:100E300010BD00006801002010B50446024920469C
:100E400001F050F810BD000080010020014629B9D2
:100E50000120034A12681082002070470148FCE715
:100E6000080000200C01002010B50446024920466D
:100E700001F038F810BD00007801002070B505467B
:100E800006480068C478042C01DD002070BD0448C9
:100E900000EBC401284601F025F8F7E70800002020
:100EA000880100200246002901DD02207047002A47
:100EB00001DD0220FAE70020F8E7000000B5024655
:100EC00006480068007800F07F00212804D10B2A32
:100ED00002D100F069F800BD0220FCE70800002004
:100EE00010B5002023490968887222490968C87230
:100EF0002148C0791F4909684872002000F076FD3A
:100F00004FF40071002000F051FE1021002000F08D
:100F10002DFE1821002000F099FD5821002000F03E
:100F200007FE0020FFF70AFB144890F82C10002061
:100F300000F09EFD002000F0E1FD4FF4C0610120B3
:100F400000F034FE4FF48071012000F0F1FD042127
:100F5000012000F0FDFD0021012000F0AFFD202167
:100F6000012000F003FE002000F048FD01200449AC
:100F7000086010BD08000020F327000814010020BD
:100F8000A80100200348817A11B10521024A1160AD
:100F900070470000B0010020A80100200420014992
:100FA00008607047A801002003480068C178034822
:100FB0000160002070470000080000200C010020A4
:100FC0007047704710B5FFF7F3FD00200549096829
:100FD000887200F075F901F07FFB0020024908607B
:100FE00010BD000008000020A801002010B5144C1E
:100FF000012000F003FC00F01BFC1249087000BF48
:10100000112000F0D1FB0028FAD0012000F0FEFBF7
:1010100000BF192000F0C8FB0028FAD0022000F021
:10102000FBFB00BF00F0E2FB0828FBD1A07A18B15F
:1010300005200549086002E001200349086010BD51
:10104000B00100206C000020A801002000BFFEE7D6
:101050007047704770B5002100230F22C47804B395
:10106000154C246804F4E064C4F5E064210AC1F17D
:101070000403CA40447804FA03F1847814402143FD
:1010800009010E4C0678A155047804F01F050124CF
:10109000AC4005786D11AD0005F1E025C5F80041C3
:1010A00009E0047804F01F050124AC40044D0678E3
:1010B000761145F8264070BD0CED00E000E400E03C
:1010C00080E100E070B50226474800684478464851
:1010D0000068007800F07F00002844D1092C03D17B
:1010E00000F0A8FF06465FE0052C14D13E480068DA
:1010F000C0787F280BDC3C480068807838B93A48D3
:101100000068808818B938480068807A08B10825D6
:1011100065E0002648E0032C0ED133480068C07813
:10112000012807D130480068808818B900F0A6FF70
:10113000064639E0022637E0012C35D12A480068FE
:10114000C07801280DD128480068808848B9264811
:101150000068407A00F0200018B100F0F7FD064664
:1011600022E0022620E020480068007800F07F009E
:10117000012805D10B2C17D100F0FCFF064613E027
:1011800019480068007800F07F0002280BD1012C7C
:1011900003D100F0DBFD064606E0032C04D100F08D
:1011A00081FF064600E002264EB1E0B20F4A126807
:1011B000516988470646032E01D109250FE00EB17B
:1011C00008250CE0062500210948006880B2801C33
:1011D000084A42F8101030200749088000BF024931
:1011E00009680D7270BD0000080000200C0000208E
:1011F000505C0040006000401A00002010B511480B
:101200000068047A022C01D0042C01D1082412E0D9
:10121000032C01D0052C05D1FFF704FA094800681A
:10122000047A08E0072C05D107490968C868804797
:10123000082400E00824034909680C7200F01CF837
:1012400010BD0000080000200C000020F0B5561C66
:101250007510074E06EB41042B4605E034F8047B7D
:1012600020F8017B401C5B1E002BF7D1F0BD000075
:10127000006000407047000010B50D4890F82C1039
:10128000002000F0F5FB0B480068007A082805D123
:101290004002094908801020084908800548006874
:1012A000007A092801D1012010BD0020FCE70000D0
:1012B0001401002008000020180000201A0000205F
:1012C00010B5012001F076F901240B4804600020DC
:1012D0000A49088008460088074908600020091D5F
:1012E00008604FF4E050054908800846008802492C
:1012F0000860002010BD0000405C0040120000208B
:1013000029B1064A52690243044B5A6104E0034A78
:1013100052698243014B5A6170470000001002403D
:1013200029B1064AD2690243044BDA6104E0034A58
:10133000D2698243014BDA6170470000001002401D
:1013400029B1064A92690243044B9A6104E0034AB8
:1013500092698243014B9A6170470000001002407D
:101360002DE9F0410021002400278C4600230022B3
:1013700000250026DFF81C84D8F8048008F00C0152
:1013800021B1042907D0082930D109E0DFF8088409
:10139000C0F800802FE0DFF80084C0F800802AE069
:1013A000DFF8F083D8F8048008F47014DFF8E483E1
:1013B000D8F8048008F480374FF0020808EB944412
:1013C00027B9DFF8D88304FB08F20DE0DFF8C48307
:1013D000D8F82C8008F00F0808F1010CDFF8B8836A
:1013E000B8FBFCF808FB04F2026004E0DFF8A88315
:1013F000C0F8008000BF00BFDFF89883D8F80480F1
:1014000008F0F0010909DFF8988318F80160D0F8B6
:10141000008028FA06F8C0F80480DFF87883D8F84E
:10142000048008F4E061090ADFF8748318F80130D9
:10143000D0F8048028FA03F8C0F80880DFF8548355
:10144000D8F8048008F46051C90ADFF8548318F80A
:101450000150D0F8048028FA05F8C0F80C80DFF8B5
:101460003483D8F82C8008F4F8710909DFF8348344
:1014700038F8113003F01008B8F1000F04D0B2FBB7
:10148000F3F8C0F8108003E0D0F80080C0F81080B6
:10149000DFF80083D8F82C8008F47851490ADFF887
:1014A000048338F8113003F01008B8F1000F04D0AD
:1014B000B2FBF3F8C0F8148003E0D0F80080C0F865
:1014C0001480DFF8D082D8F8308008F01008B8F126
:1014D000100F04D0DFF8C082C0F8188003E0D0F805
:1014E0000080C0F81880DFF8AC82D8F8308008F0AF
:1014F0002008B8F1200F04D0DFF89C82C0F81C80CF
:1015000003E0D0F80080C0F81C80DFF88882D8F8AB
:10151000308008F48078B8F5807F0AD1D0F8008058
:10152000904506D1B54204D14FEA4208C0F8208068
:1015300003E0D0F80C80C0F82080DFF85882D8F89B
:10154000308008F40078B8F5007F0AD1D0F8008028
:10155000904506D1B54204D14FEA4208C0F8248034
:1015600003E0D0F80C80C0F82480DFF82882D8F897
:10157000308008F00308B8F1000F04D1D0F80C80D7
:10158000C0F8288028E0DFF80C82D8F8308008F016
:101590000308B8F1010F04D1D0F80080C0F828800A
:1015A0001AE0DFF8F081D8F8308008F00308B8F1CD
:1015B000020F04D14FF40048C0F828800CE0DFF897
:1015C000D481D8F8308008F00308B8F1030F03D1B4
:1015D000DFF8C481C0F82880DFF8B881D8F83080FF
:1015E00008F44038B8F1000F04D1D0F80880C0F8F2
:1015F0002C8028E0DFF89C81D8F8308008F440384F
:10160000B8F5803F04D1D0F80080C0F82C801AE0F3
:10161000DFF88081D8F8308008F44038B8F5003F12
:1016200004D14FF40048C0F82C800CE0DFF864814E
:10163000D8F8308008F44038B8F5403F03D1DFF8DF
:101640005881C0F82C80DFF84C81D8F8308008F43D
:101650004028B8F1000F04D1D0F80880C0F83080DD
:1016600028E0DFF83081D8F8308008F44028B8F559
:10167000802F04D1D0F80080C0F830801AE0DFF865
:101680001481D8F8308008F44028B8F5002F04D130
:101690004FF40048C0F830800CE0DFF8F880D8F84C
:1016A000308008F44028B8F5402F03D1DFF8E880F7
:1016B000C0F83080DFF8DC80D8F8308008F44018BB
:1016C000B8F1000F04D1D0F80880C0F8348028E0C9
:1016D000DFF8C080D8F8308008F44018B8F5801FD3
:1016E00004D1D0F80080C0F834801AE0DFF8A4807C
:1016F000D8F8308008F44018B8F5001F04D14FF432
:101700000048C0F834800CE0DFF88880D8F83080DA
:1017100008F44018B8F5401F03D1DFF87C80C0F80A
:101720003480DFF87080D8F8308008F44008B8F1D1
:10173000000F04D1D0F80880C0F8388028E0DFF826
:101740005480D8F8308008F44008B8F5800F04D1F0
:10175000D0F80080C0F838801AE0DFF83880D8F878
:10176000308008F44008B8F5000F04D14FF4004869
:10177000C0F838800CE0DFF81C80D8F8308008F41E
:101780004008B8F5400F03D1DFF80C80C0F838806E
:10179000BDE8F0810010024000127A0000093D000F
:1017A000400000205000002010B502460021002318
:1017B0000020511111B90C4C23680BE0012902D112
:1017C000094C236A06E0042902D1074C636801E052
:1017D000054C636A02F01F0101248C401C400CB1CF
:1017E000012000E0002010BD0010024002484068C7
:1017F00000F00C0070470000001002400021024A77
:1018000091701146887070470010024001490866C7
:10181000704700000000424201460020034A506821
:1018200020F00300084350607047000000100240A1
:1018300038B5002000900024002500BF1120FFF7DC
:10184000B3FF05460098401C00900098B0F5A06FCB
:1018500001D0002DF2D01120FFF7A6FF08B101241E
:1018600000E00024204638BD70B50546072D01D0A4
:101870002748057026480078082841D2DFE800F0A4
:10188000040A1016212E414200F046F80620204995
:1018900008703BE000F040F804201D49087035E076
:1018A00002201B494870032008702FE01848407838
:1018B000401E174948700846407808B9042008704F
:1018C00024E01448006884B244F010041148046015
:1018D00005200F4908700A20487017E00C4840782E
:1018E000401E0B4948700846407840B909480068D6
:1018F00084B224F01004074804600620087005E054
:1019000000BF00BF06200249087000BF00BF70BDC5
:10191000AD010020405C004010B50748006884B26B
:1019200024F0040404480460FFF760FB4FF43F40D8
:101930000149086010BD0000405C00401CB5044631
:101940000E4951F824000121FFF7DAFC0C4830F869
:101950001400009001208DF8040000208DF806008E
:1019600001208DF8070003208DF80500054951F886
:1019700024006946FFF784F81CBD0000B427000866
:10198000A42700081C000020064951F82010898A6D
:10199000054A32F810205140024A52F82020918224
:1019A000704700001C000020A427000810B5044662
:1019B000044A32F81410044A52F82400FFF7CBF816
:1019C00010BD0000D42700083C0000207047000034
:1019D00000BF0549096801F080010029F9D0C1B2B2
:1019E000014A0C32118070471C3801404FF6F871E3
:1019F0000140014A11607047505C004030B501461B
:101A00000F4B1A78002014E003060E4C04EB93539E
:101A1000D3F8003C48F68F74234048F280042343F7
:101A2000C4B223430406074D05EB9454C4F8003CAC
:101A3000401C9042E8D341F08003034C236030BD4A
:101A400010010020005000404C5C004010B54A10CE
:101A50005300054A126892B202EBC002121D034CF9
:101A600044F8123010BD0000505C0040006000409F
:101A700010B502460F48006880B200EBC200801D1E
:101A80000D4C04EB40033E290BDD481101F01F040F
:101A90000CB9441EA0B24FF4004444EA80241C60F8
:101AA00007E0481001F001040CB1441CA0B284020C
:101AB0001C6010BD505C00400060004030B50E4C12
:101AC00004EB8003D3F8003C4BF68F7403EA040266
:101AD00001F480530BB182F4805201F400530BB136
:101AE00082F4005242F4004343F08003024D05EBC0
:101AF0008004C4F8003C30BD0050004010B50B4BD2
:101B000003EB8002D2F8002C4BF68F7302EA03013C
:101B100081F4805181F4005141F4004242F080028E
:101B2000024C04EB8003C3F8002C10BD00500040B1
:101B300010B54A105200044B1B689BB203EBC00364
:101B4000024C44F8132010BD505C0040006000407F
:101B5000044A126892B202EBC002921C024B43F894
:101B600012107047505C00400060004030B50E4CD1
:101B700004EB8003D3F8003C48F6BF7403EA040288
:101B800001F010030BB182F0100201F020030BB141
:101B900082F0200242F4004343F08003024D05EB43
:101BA0008004C4F8003C30BD0050004010B5074B25
:101BB00003EB8002D2F8002C48F68F131A400A4338
:101BC000024C04EB8003C3F8002C10BD0050004011
:101BD0000CB50020019000902C48006840F4A02033
:101BE0002A49086000BF2948006800F400300090CE
:101BF0000198401C0190009818B90198B0F5A06FA9
:101C0000F1D12248006800F4003010B101200090AA
:101C100001E0002000900098012836D112201C49D4
:101C200008601A484068194948600846406848609A
:101C30000846406840F4806048600846406820F4E8
:101C40007C1048600846406840F4E8104860084648
:101C5000006840F08070086000BF0C48006800F029
:101C600000700028F9D00948406820F003000749B7
:101C700048600846406840F00200486000BF0348E2
:101C8000406800F00C000828F9D10CBD001002409B
:101C90000020024038B501242948006880B2001DA8
:101CA000284931F8100080B201EB4000009026482E
:101CB0000068007A092832D0009800782249096823
:101CC00008700098401C0090009800781E49096830
:101CD00048700098401C0090009800EB4400009071
:101CE000009931F8020B0091FEF7A9FA164909682C
:101CF0004880009800EB44000090009931F8020BF6
:101D00000091FEF79CFA104909688880009800EB62
:101D100044000090009800880B490968C8800120A1
:101D200009490968087208480068C08810B9FFF7B7
:101D3000C9F901E0FEF7D4FCFFF79EFA38BD0000B8
:101D4000505C004000600040080000202DE9F04792
:101D500054480068007800F07F08B8F1000F0AD1FD
:101D600050480068407A00F0DF004E490968487228
:101D70000020BDE8F087B8F1020F7CD14948006827
:101D8000408818B947480068007908B10220F0E798
:101D9000DFF8149143480068477927F080052C4606
:101DA00040480068407900F0800038B13F4901EBBD
:101DB0008400D0F8000C00F0300606E03B4901EB4F
:101DC0008400D0F8000C00F4405699F80000A842B6
:101DD00004D91EB133480068807A08B90220C8E7E8
:101DE00007F0800080B1314901EB8400D0F8000C8D
:101DF00000F0300010284BD1E0B2FEF785FBE0B2D6
:101E00003021FFF7B3FE43E0284901EB8400D0F80E
:101E1000000C00F44050B0F5805F39D1E4B9244A99
:101E200092F82C10E0B2FFF723FE204A02EB840167
:101E3000D1F8001C4BF68F7201EA020080F480504A
:101E400080F4005040F4004141F08001174B03EB57
:101E50008402C2F8001C1BE0E0B2FEF73BFB134A11
:101E600002EB8401D1F8001C4BF68F7201EA0200EC
:101E700080F4805000E011E080F4005040F4004114
:101E800041F08001094B03EB8402C2F8001C00BF43
:101E9000084909684869804700206AE700BF0220B6
:101EA00067E70000080000201001002000500040FB
:101EB000140100201400002010B504462CB90120A4
:101EC000064909680882002010BD054909680868AC
:101ED0008047024800680A30F6E70000080000204A
:101EE0001400002010B5024606480068438A32B943
:101EF0008888C01A034C24682082002010BD08681E
:101F00001844FBE70800002010B504462CB9012056
:101F1000064909680882002010BD054909688868DB
:101F20008047024800680C30F6E7000008000020F7
:101F30001400002010B504462CB902203949096864
:101F40000882002010BD002037490880354800680D
:101F5000007800F07F0018BB32490968487A00F029
:101F6000200131B13049097841F002012E4A117047
:101F700005E02D49097801F0FD012B4A117000F0B0
:101F8000400131B12849097841F00101264A117018
:101F900005E02549097801F0FE01234A11703AE075
:101FA00020480068007800F07F00012801D11E4819
:101FB000C8E71C480068007800F07F00022828D19C
:101FC000184A1268517901F00F0001F080027AB1CD
:101FD000164B03EB8002D2F8002C02F03002102ADC
:101FE00016D1114A127842F001020F4B1A700FE01D
:101FF0000E4B03EB8002D2F8002C02F44052B2F5F3
:10200000805F05D1084A127842F00102064B1A702F
:1020100001E0002096E70649096808698047024800
:1020200090E7000008000020000000200050004061
:102030001400002010B50E480068C0780D4949789A
:10204000884213DC0A480068807878B9084800683C
:10205000808858B906480068C078054909688872C0
:102060000549096848688047002010BD0220FCE748
:1020700008000020100100201400002010B50748BF
:102080000068407A40F02000044909684872044919
:102090000968C8698047002010BD000008000020C2
:1020A000140000202DE9F0412E480068467926F002
:1020B00080073C462B480068407900F0800038B12A
:1020C000294901EB8400D0F8000C00F0300506E04F
:1020D000254901EB8400D0F8000C00F4405523485A
:1020E0000078A04208D91F480068408820B91DB177
:1020F0001C480068807A10B90220BDE8F08106F023
:102100008000A0B1184A02EB8401D1F8001C48F607
:10211000BF7201EA020080F0100040F4004141F07B
:102120008001114B03EB8402C2F8001C14E00E4A3C
:1021300002EB8401D1F8001C4BF68F7201EA020019
:1021400080F4805040F4004141F08001064B03EBE5
:102150008402C2F8001C00BF0549096888698047ED
:102160000020CAE7080000200050004010010020B5
:102170001400002010B5174B1B68D978154B1B684D
:102180005879154B1B689A699047044611480068B6
:10219000807AE8B13CB90F480068007918B90D4859
:1021A0000068807808B1022010BD8CB90B4909681D
:1021B000C868804707480068407906490968C872BE
:1021C00004480068C0780349096808730020EBE7F9
:1021D0000220E9E7080000200C0000201400002085
:1021E00010B50848006884B244F00804054804604B
:1021F000006884B244F0040402480460FEF736FC30
:1022000010BD0000405C004010B500F0E9F8034844
:102210000068401E0149086010BD000084000020D5
:1022200010B51B48006840F470001949086019484F
:10223000006840F0010017490860084640681649E8
:10224000084014494860084600681449084011498C
:1022500008600846006820F480200860084640684E
:1022600020F4FE0048600846C06A20F00F00C862F3
:102270000846006B0A490840064908630020886048
:10228000FFF7A6FC4FF0006001498039086010BDDF
:1022900088ED00E0001002400CC07FF8FFFFF6FE62
:1022A000CCFC00FF10B50121880700F02FF8C8B161
:1022B0000121880700F01AF815200B49087008461C
:1022C0000078FFF785FB012000F096F8022000F06F
:1022D00093F8042000F090F8082000F08DF810200A
:1022E00000F08AF810BD0000A8000020CA4392B296
:1022F0000261704721B1028842F00102028004E0CD
:1023000002884FF6FE731A400280704730B50246CD
:10231000002000230024156905EA0103D56805EAB9
:10232000010413B10CB1012000E0002030BD10B554
:102330001AB1C3680B43C36004E0C368CC43A4B2C2
:102340002340C36010BD0000002202881B4B98424E
:102350000BD01B4B984208D0B0F1804F05D0194BE1
:10236000984202D0184B984204D14FF68F731A400E
:102370004B881A43154B984207D0154B984204D00E
:102380004FF6FF431A400B891A4302804B68C36221
:102390000B880385094B98420BD0094B984208D013
:1023A0000C4B984205D00C4B984202D00B4B9842F4
:1023B00001D18B7A0386012343617047002C0140D1
:1023C00000340140000400400008004000100040BC
:1023D000001400400040014000440140004801401A
:1023E0000448006820B103480068401E01490860A5
:1023F000704700007800002010B50446102C02D170
:102400000020FFF7C1FA082C0ED121480068401CBB
:102410001F49086008460068012805D10220FFF71F
:10242000B3FA00201A490860042C0ED1194800683C
:10243000401C1849086008460068032805D104209C
:10244000FFF7A2FA002013490860022C0ED11248AF
:102450000068401C1049086008460068072805D13C
:102460000620FFF791FA00200B490860012C0ED1DD
:102470000A480068401C09490860084600680F289F
:1024800005D10720FFF780FA00200449086010BD3D
:10249000980000209C000020A0000020A400002044
:1024A00021B1026842F00102026003E0026822F0FA
:1024B00001020260704700002DE9F04190B004462F
:1024C0000D460027B8460026206820F00100206055
:1024D000666826F44056A86806436660266841F29E
:1024E0000C608643E9686868084329690843064325
:1024F0002660A66826F4407668690643A66001A8AF
:10250000FEF72EFF2348844202D1DDF82C8013E031
:102510002148844202D1DDF830800DE01F4884421A
:1025200002D1DDF8348007E01D48844202D1DDF895
:10253000388001E0DDF83C80206800F4004060B1A4
:102540004FEA48002968B0FBF1F74FEA48002968D4
:10255000B0FBF1F201FB120607E02868B8FBF0F7C8
:102560002868B8FBF0F100FB11862868B6EB500F25
:1025700000D37F1C206800F4004038B1C7F3420646
:102580004FF6F07107EA010040EA0607A78110B094
:10259000BDE8F081003801400044004000480040A0
:1025A000004C004010B50020FFF75EF91220FEF746
:1025B0002BFA10BD10B504462CB14FF480410548EC
:1025C000FEF7D2FA04E04FF480410248FEF7CEFA5B
:1025D00010BD00000010004810B5374800683749AA
:1025E00008800846008800F4004035490988084002
:1025F00008B1FDF72BFE3148008800F480603049B7
:102600000988084030B14FF6FF302B4908602D494A
:10261000486880472948008800F400502849098804
:10262000084018B14DF6FF70234908602348008820
:1026300000F4805022490988084030B14EF6FF70FE
:102640001D4908600020FFF70FF91C48008800F4BE
:1026500000601B490988084060B11B48007810B130
:10266000FFF7BEFD02E00220FFF7FEF84FF2FF7019
:10267000114908601148008800F400701049098869
:10268000084040B14FF6FF500B4908600F480078F2
:10269000401C0E4908700948008800F48070084901
:1026A0000988084030B14FF6FF60034908600720F1
:1026B000FFF7DAF810BD0000445C0040D0000020B5
:1026C0001200002014010020AC010020D2000020E4
:1026D00010B5FFF781FF10BD0020064908604FF4D8
:1026E0003F4005490880084600880249091F0860E4
:1026F00000207047445C00401200002000BFFEE74D
:10270000F0B5144604F1010C4FEA6C07DFF824C061
:102710000CEB41033D460AE00678401C90F800C0EF
:1027200046EA0C2223F8022B9B1C401C6D1E002D38
:10273000F2D1F0BD0060004002E008C8121F08C1DD
:10274000002AFAD170477047002001E001C1121F32
:10275000002AFBD1704708B5FEF7B4FAFEF7DEFA9F
:10276000FEF77AFAFEF78CFA0020FFF7E7F801206F
:10277000FFF7E4F80220FFF7E1F80320FFF7DEF8A7
:102780000420FFF7DBF80520FFF7D8F80620FFF755
:10279000D5F80720FFF7D2F801208DF8000000BF20
:1027A000FEE7000000020001000400800008004075
:1027B0000010002000002000000020000000200089
:1027C0000000200000002000000020000000200089
:1027D00000002000010000000000020000000000D6
:1027E000061201000200000040830410570002019D
:1027F00002030109022200010100E0320904000085
:102800000103010200092100010001224A0007051D
:10281000810304002005010902A1010901A10005AD
:1028200009190129031500250195037501810295F8
:102830000175058101050109300931093815812526
:102840007F750895038106C0093C05FF0901150045
:10285000250175019502B12275069501B101C004EB
:102860000309042603530054004D006900630072FD
:10287000006F0065006C0065006300740072006FFB
:10288000006E006900630073001E03530054004D86
:10289000003300320020004A006F0079007300749A
:1028A00000690063006B0000C828000800000020D9
:1028B000B0010000E401000878290008B001002000
:1028C000B804000048270008011D12100A1B480424
:1028D000212904112D01020304041D060708090E15
:1028E000111202120412061208120A1A0C271220E0
:1028F00012402A8017011619180A106413011D14BA
:102900001A03531254124D12331232123102113083
:10291000137D090C3008531004411A027D13C50FB2
:102920001408E10E1B08C1081AC30413950D1B08F7
:10293000BD101AA5041A25041A11041A7D04413287
:1029400040293C1A85280916582A9D501227330819
:10295000121AF308322213152833084A1A050832CE
:10296000091A5F0832041A630832261A8908321ECF
:0829700022B473201A199B1117
:040000050800018965
:00000001FF
